{
  "address": "0xC07D82801966EfF476DE04697c9DC79252dB59f5",
  "abi": [
    {
      "inputs": [
        {
          "internalType": "address",
          "name": "_dedicatedMsgSender",
          "type": "address"
        }
      ],
      "stateMutability": "nonpayable",
      "type": "constructor"
    },
    {
      "anonymous": false,
      "inputs": [
        {
          "indexed": false,
          "internalType": "address",
          "name": "participant",
          "type": "address"
        },
        {
          "indexed": false,
          "internalType": "string",
          "name": "name",
          "type": "string"
        }
      ],
      "name": "AddParticipant",
      "type": "event"
    },
    {
      "inputs": [
        {
          "internalType": "string",
          "name": "_name",
          "type": "string"
        }
      ],
      "name": "addName",
      "outputs": [],
      "stateMutability": "nonpayable",
      "type": "function"
    },
    {
      "inputs": [],
      "name": "dedicatedMsgSender",
      "outputs": [
        {
          "internalType": "address",
          "name": "",
          "type": "address"
        }
      ],
      "stateMutability": "view",
      "type": "function"
    },
    {
      "inputs": [],
      "name": "getLastWinner",
      "outputs": [
        {
          "internalType": "string",
          "name": "",
          "type": "string"
        }
      ],
      "stateMutability": "view",
      "type": "function"
    },
    {
      "inputs": [
        {
          "internalType": "string",
          "name": "_name",
          "type": "string"
        }
      ],
      "name": "updateWinner",
      "outputs": [],
      "stateMutability": "nonpayable",
      "type": "function"
    },
    {
      "inputs": [],
      "name": "winner",
      "outputs": [
        {
          "internalType": "string",
          "name": "",
          "type": "string"
        }
      ],
      "stateMutability": "view",
      "type": "function"
    }
  ],
  "transactionHash": "0x52211adda97f2a0405854d6d3bd8319297dc040e6a0c13f9d12acf50ca4f4d3a",
  "args": [
    "0xcc53666e25BF52C7c5Bc1e8F6E1F6bf58E871659"
  ],
  "numDeployments": 2,
  "solcInputHash": "6ef1fcc1f47d1584e4049d4992d1ab6f",
  "bytecode": "0x60a060405234801561001057600080fd5b506040516105ad3803806105ad83398101604081905261002f91610040565b6001600160a01b0316608052610070565b60006020828403121561005257600080fd5b81516001600160a01b038116811461006957600080fd5b9392505050565b60805161052361008a6000396000607601526105236000f3fe608060405234801561001057600080fd5b50600436106100575760003560e01c806311456b471461005c57806328f150eb146100715780639eb7c2cd146100b5578063dfbf53ae146100c8578063f88649a1146100dd575b600080fd5b61006f61006a366004610267565b6100e5565b005b6100987f000000000000000000000000000000000000000000000000000000000000000081565b6040516001600160a01b0390911681526020015b60405180910390f35b61006f6100c3366004610267565b610121565b6100d0610131565b6040516100ac919061035e565b6100d06101bf565b7f7a274ad5ebae6fdc80650d34a4e01c874e099afaca3b6e8c896edc5b9126651b3382604051610116929190610378565b60405180910390a150565b600061012d828261042d565b5050565b6000805461013e906103a4565b80601f016020809104026020016040519081016040528092919081815260200182805461016a906103a4565b80156101b75780601f1061018c576101008083540402835291602001916101b7565b820191906000526020600020905b81548152906001019060200180831161019a57829003601f168201915b505050505081565b6060600080546101ce906103a4565b80601f01602080910402602001604051908101604052809291908181526020018280546101fa906103a4565b80156102475780601f1061021c57610100808354040283529160200191610247565b820191906000526020600020905b81548152906001019060200180831161022a57829003601f168201915b5050505050905090565b634e487b7160e01b600052604160045260246000fd5b60006020828403121561027957600080fd5b813567ffffffffffffffff8082111561029157600080fd5b818401915084601f8301126102a557600080fd5b8135818111156102b7576102b7610251565b604051601f8201601f19908116603f011681019083821181831017156102df576102df610251565b816040528281528760208487010111156102f857600080fd5b826020860160208301376000928101602001929092525095945050505050565b6000815180845260005b8181101561033e57602081850181015186830182015201610322565b506000602082860101526020601f19601f83011685010191505092915050565b6020815260006103716020830184610318565b9392505050565b6001600160a01b038316815260406020820181905260009061039c90830184610318565b949350505050565b600181811c908216806103b857607f821691505b6020821081036103d857634e487b7160e01b600052602260045260246000fd5b50919050565b601f82111561042857600081815260208120601f850160051c810160208610156104055750805b601f850160051c820191505b8181101561042457828155600101610411565b5050505b505050565b815167ffffffffffffffff81111561044757610447610251565b61045b8161045584546103a4565b846103de565b602080601f83116001811461049057600084156104785750858301515b600019600386901b1c1916600185901b178555610424565b600085815260208120601f198616915b828110156104bf578886015182559484019460019091019084016104a0565b50858210156104dd5787850151600019600388901b60f8161c191681555b5050505050600190811b0190555056fea2646970667358221220d71e645b7ca502ed4071e2428bae7bd99b5cfd97ced93d52ac7c5b7bc591009564736f6c63430008120033",
  "devdoc": {
    "kind": "dev",
    "methods": {},
    "version": 1
  },
  "userdoc": {
    "kind": "user",
    "methods": {},
    "version": 1
  },
  "storageLayout": {
    "storage": [
      {
        "astId": 3,
        "contract": "contracts/Lottery.sol:Lottery",
        "label": "winner",
        "offset": 0,
        "slot": "0",
        "type": "t_string_storage"
      }
    ],
    "types": {
      "t_string_storage": {
        "encoding": "bytes",
        "label": "string",
        "numberOfBytes": "32"
      }
    }
  }
}